{
  "_format": "hh-sol-artifact-1",
  "contractName": "EnergyTrading",
  "sourceName": "contracts/EnergyTrading.sol",
  "abi": [
    {
      "inputs": [],
      "stateMutability": "nonpayable",
      "type": "constructor"
    },
    {
      "anonymous": false,
      "inputs": [
        {
          "indexed": true,
          "internalType": "address",
          "name": "provider",
          "type": "address"
        },
        {
          "indexed": false,
          "internalType": "uint256",
          "name": "amount",
          "type": "uint256"
        }
      ],
      "name": "EnergyAdded",
      "type": "event"
    },
    {
      "anonymous": false,
      "inputs": [
        {
          "indexed": true,
          "internalType": "address",
          "name": "from",
          "type": "address"
        },
        {
          "indexed": true,
          "internalType": "address",
          "name": "to",
          "type": "address"
        },
        {
          "indexed": false,
          "internalType": "uint256",
          "name": "amount",
          "type": "uint256"
        }
      ],
      "name": "EnergyTransferred",
      "type": "event"
    },
    {
      "anonymous": false,
      "inputs": [
        {
          "indexed": true,
          "internalType": "address",
          "name": "user",
          "type": "address"
        },
        {
          "indexed": false,
          "internalType": "uint256",
          "name": "incentiveAmount",
          "type": "uint256"
        }
      ],
      "name": "RenewableEnergyIncentiveClaimed",
      "type": "event"
    },
    {
      "anonymous": false,
      "inputs": [
        {
          "indexed": true,
          "internalType": "address",
          "name": "user",
          "type": "address"
        }
      ],
      "name": "RenewableEnergyRegistered",
      "type": "event"
    },
    {
      "inputs": [
        {
          "internalType": "string",
          "name": "energyType",
          "type": "string"
        },
        {
          "internalType": "uint256",
          "name": "amount",
          "type": "uint256"
        },
        {
          "internalType": "bool",
          "name": "isRenewable",
          "type": "bool"
        }
      ],
      "name": "addEnergy",
      "outputs": [],
      "stateMutability": "nonpayable",
      "type": "function"
    },
    {
      "inputs": [],
      "name": "claimRenewableEnergyIncentive",
      "outputs": [],
      "stateMutability": "nonpayable",
      "type": "function"
    },
    {
      "inputs": [
        {
          "internalType": "address",
          "name": "",
          "type": "address"
        }
      ],
      "name": "energyBalances",
      "outputs": [
        {
          "internalType": "uint256",
          "name": "",
          "type": "uint256"
        }
      ],
      "stateMutability": "view",
      "type": "function"
    },
    {
      "inputs": [
        {
          "internalType": "uint256",
          "name": "",
          "type": "uint256"
        }
      ],
      "name": "energyProviders",
      "outputs": [
        {
          "internalType": "address",
          "name": "providerAddress",
          "type": "address"
        },
        {
          "internalType": "string",
          "name": "energyType",
          "type": "string"
        },
        {
          "internalType": "uint256",
          "name": "energyBalance",
          "type": "uint256"
        },
        {
          "internalType": "bool",
          "name": "isRenewable",
          "type": "bool"
        }
      ],
      "stateMutability": "view",
      "type": "function"
    },
    {
      "inputs": [
        {
          "internalType": "address",
          "name": "userAddress",
          "type": "address"
        }
      ],
      "name": "getEnergyBalance",
      "outputs": [
        {
          "internalType": "uint256",
          "name": "",
          "type": "uint256"
        }
      ],
      "stateMutability": "view",
      "type": "function"
    },
    {
      "inputs": [],
      "name": "owner",
      "outputs": [
        {
          "internalType": "address",
          "name": "",
          "type": "address"
        }
      ],
      "stateMutability": "view",
      "type": "function"
    },
    {
      "inputs": [],
      "name": "registerRenewableEnergyUser",
      "outputs": [],
      "stateMutability": "nonpayable",
      "type": "function"
    },
    {
      "inputs": [
        {
          "internalType": "address",
          "name": "",
          "type": "address"
        }
      ],
      "name": "renewableEnergyUsers",
      "outputs": [
        {
          "internalType": "bool",
          "name": "",
          "type": "bool"
        }
      ],
      "stateMutability": "view",
      "type": "function"
    },
    {
      "inputs": [
        {
          "internalType": "address",
          "name": "to",
          "type": "address"
        },
        {
          "internalType": "uint256",
          "name": "amount",
          "type": "uint256"
        }
      ],
      "name": "transferEnergy",
      "outputs": [],
      "stateMutability": "nonpayable",
      "type": "function"
    }
  ],
  "bytecode": "0x608060405234801561001057600080fd5b50336000806101000a81548173ffffffffffffffffffffffffffffffffffffffff021916908373ffffffffffffffffffffffffffffffffffffffff160217905550611546806100606000396000f3fe608060405234801561001057600080fd5b50600436106100935760003560e01c80638da5cb5b116100665780638da5cb5b1461010f578063a249eb611461012d578063a990593914610149578063d77ab8ab14610165578063ee3d63561461019557610093565b80633eed545b14610098578063415e7e6d146100cb57806346352b58146100d55780636d74ae6f14610105575b600080fd5b6100b260048036038101906100ad9190610d2f565b6101c5565b6040516100c29493929190610ece565b60405180910390f35b6100d36102ba565b005b6100ef60048036038101906100ea9190610c63565b61043c565b6040516100fc9190611015565b60405180910390f35b61010d610485565b005b6101176105af565b6040516101249190610eb3565b60405180910390f35b61014760048036038101906101429190610cc8565b6105d3565b005b610163600480360381019061015e9190610c8c565b6107a1565b005b61017f600480360381019061017a9190610c63565b6109eb565b60405161018c9190611015565b60405180910390f35b6101af60048036038101906101aa9190610c63565b610a03565b6040516101bc9190610f1a565b60405180910390f35b600181815481106101d557600080fd5b90600052602060002090600402016000915090508060000160009054906101000a900473ffffffffffffffffffffffffffffffffffffffff169080600101805461021e906111e7565b80601f016020809104026020016040519081016040528092919081815260200182805461024a906111e7565b80156102975780601f1061026c57610100808354040283529160200191610297565b820191906000526020600020905b81548152906001019060200180831161027a57829003601f168201915b5050505050908060020154908060030160009054906101000a900460ff16905084565b600360003373ffffffffffffffffffffffffffffffffffffffff1673ffffffffffffffffffffffffffffffffffffffff16815260200190815260200160002060009054906101000a900460ff16610346576040517f08c379a000000000000000000000000000000000000000000000000000000000815260040161033d90610f55565b60405180910390fd5b6000610350610a23565b905060008111610395576040517f08c379a000000000000000000000000000000000000000000000000000000000815260040161038c90610ff5565b60405180910390fd5b80600260003373ffffffffffffffffffffffffffffffffffffffff1673ffffffffffffffffffffffffffffffffffffffff16815260200190815260200160002060008282546103e491906110a2565b925050819055503373ffffffffffffffffffffffffffffffffffffffff167f6b9353878aec8d62e54b7228f22d3b548328c6e7a43b0783a2a5fe2440e34972826040516104319190611015565b60405180910390a250565b6000600260008373ffffffffffffffffffffffffffffffffffffffff1673ffffffffffffffffffffffffffffffffffffffff168152602001908152602001600020549050919050565b600360003373ffffffffffffffffffffffffffffffffffffffff1673ffffffffffffffffffffffffffffffffffffffff16815260200190815260200160002060009054906101000a900460ff1615610512576040517f08c379a000000000000000000000000000000000000000000000000000000000815260040161050990610fb5565b60405180910390fd5b6001600360003373ffffffffffffffffffffffffffffffffffffffff1673ffffffffffffffffffffffffffffffffffffffff16815260200190815260200160002060006101000a81548160ff0219169083151502179055503373ffffffffffffffffffffffffffffffffffffffff167fc6fe93cfe1379b13171c0150b8aab9c0d32b01c367e5955984be0afc9d39efec60405160405180910390a2565b60008054906101000a900473ffffffffffffffffffffffffffffffffffffffff1681565b60008211610616576040517f08c379a000000000000000000000000000000000000000000000000000000000815260040161060d90610f35565b60405180910390fd5b600083511161065a576040517f08c379a000000000000000000000000000000000000000000000000000000000815260040161065190610fd5565b60405180910390fd5b600160405180608001604052803373ffffffffffffffffffffffffffffffffffffffff168152602001858152602001848152602001831515815250908060018154018082558091505060019003906000526020600020906004020160009091909190915060008201518160000160006101000a81548173ffffffffffffffffffffffffffffffffffffffff021916908373ffffffffffffffffffffffffffffffffffffffff1602179055506020820151816001019080519060200190610721929190610b19565b506040820151816002015560608201518160030160006101000a81548160ff02191690831515021790555050503373ffffffffffffffffffffffffffffffffffffffff167f62d45c5de4879714a792168f6d1f29510dda2bd60e80e980f320196e8fb20d86836040516107949190611015565b60405180910390a2505050565b600073ffffffffffffffffffffffffffffffffffffffff168273ffffffffffffffffffffffffffffffffffffffff161415610811576040517f08c379a000000000000000000000000000000000000000000000000000000000815260040161080890610f95565b60405180910390fd5b60008111610854576040517f08c379a000000000000000000000000000000000000000000000000000000000815260040161084b90610f35565b60405180910390fd5b80600260003373ffffffffffffffffffffffffffffffffffffffff1673ffffffffffffffffffffffffffffffffffffffff1681526020019081526020016000205410156108d6576040517f08c379a00000000000000000000000000000000000000000000000000000000081526004016108cd90610f75565b60405180910390fd5b80600260003373ffffffffffffffffffffffffffffffffffffffff1673ffffffffffffffffffffffffffffffffffffffff16815260200190815260200160002060008282546109259190611129565b9250508190555080600260008473ffffffffffffffffffffffffffffffffffffffff1673ffffffffffffffffffffffffffffffffffffffff168152602001908152602001600020600082825461097b91906110a2565b925050819055508173ffffffffffffffffffffffffffffffffffffffff163373ffffffffffffffffffffffffffffffffffffffff167f314d9d54f4824ae491ddf2a96075427b4aa537d03004255d1ebaf12ffd29f3d8836040516109df9190611015565b60405180910390a35050565b60026020528060005260406000206000915090505481565b60036020528060005260406000206000915054906101000a900460ff1681565b6000806000905060005b600180549050811015610b115760018181548110610a74577f4e487b7100000000000000000000000000000000000000000000000000000000600052603260045260246000fd5b906000526020600020906004020160030160009054906101000a900460ff1615610afe57600a60018281548110610ad4577f4e487b7100000000000000000000000000000000000000000000000000000000600052603260045260246000fd5b906000526020600020906004020160020154610af091906110f8565b82610afb91906110a2565b91505b8080610b099061124a565b915050610a2d565b508091505090565b828054610b25906111e7565b90600052602060002090601f016020900481019282610b475760008555610b8e565b82601f10610b6057805160ff1916838001178555610b8e565b82800160010185558215610b8e579182015b82811115610b8d578251825591602001919060010190610b72565b5b509050610b9b9190610b9f565b5090565b5b80821115610bb8576000816000905550600101610ba0565b5090565b6000610bcf610bca84611055565b611030565b905082815260208101848484011115610be757600080fd5b610bf28482856111a5565b509392505050565b600081359050610c09816114cb565b92915050565b600081359050610c1e816114e2565b92915050565b600082601f830112610c3557600080fd5b8135610c45848260208601610bbc565b91505092915050565b600081359050610c5d816114f9565b92915050565b600060208284031215610c7557600080fd5b6000610c8384828501610bfa565b91505092915050565b60008060408385031215610c9f57600080fd5b6000610cad85828601610bfa565b9250506020610cbe85828601610c4e565b9150509250929050565b600080600060608486031215610cdd57600080fd5b600084013567ffffffffffffffff811115610cf757600080fd5b610d0386828701610c24565b9350506020610d1486828701610c4e565b9250506040610d2586828701610c0f565b9150509250925092565b600060208284031215610d4157600080fd5b6000610d4f84828501610c4e565b91505092915050565b610d618161115d565b82525050565b610d708161116f565b82525050565b6000610d8182611086565b610d8b8185611091565b9350610d9b8185602086016111b4565b610da48161134f565b840191505092915050565b6000610dbc602083611091565b9150610dc782611360565b602082019050919050565b6000610ddf603083611091565b9150610dea82611389565b604082019050919050565b6000610e02601b83611091565b9150610e0d826113d8565b602082019050919050565b6000610e25601983611091565b9150610e3082611401565b602082019050919050565b6000610e48603283611091565b9150610e538261142a565b604082019050919050565b6000610e6b601d83611091565b9150610e7682611479565b602082019050919050565b6000610e8e602083611091565b9150610e99826114a2565b602082019050919050565b610ead8161119b565b82525050565b6000602082019050610ec86000830184610d58565b92915050565b6000608082019050610ee36000830187610d58565b8181036020830152610ef58186610d76565b9050610f046040830185610ea4565b610f116060830184610d67565b95945050505050565b6000602082019050610f2f6000830184610d67565b92915050565b60006020820190508181036000830152610f4e81610daf565b9050919050565b60006020820190508181036000830152610f6e81610dd2565b9050919050565b60006020820190508181036000830152610f8e81610df5565b9050919050565b60006020820190508181036000830152610fae81610e18565b9050919050565b60006020820190508181036000830152610fce81610e3b565b9050919050565b60006020820190508181036000830152610fee81610e5e565b9050919050565b6000602082019050818103600083015261100e81610e81565b9050919050565b600060208201905061102a6000830184610ea4565b92915050565b600061103a61104b565b90506110468282611219565b919050565b6000604051905090565b600067ffffffffffffffff8211156110705761106f611320565b5b6110798261134f565b9050602081019050919050565b600081519050919050565b600082825260208201905092915050565b60006110ad8261119b565b91506110b88361119b565b9250827fffffffffffffffffffffffffffffffffffffffffffffffffffffffffffffffff038211156110ed576110ec611293565b5b828201905092915050565b60006111038261119b565b915061110e8361119b565b92508261111e5761111d6112c2565b5b828204905092915050565b60006111348261119b565b915061113f8361119b565b92508282101561115257611151611293565b5b828203905092915050565b60006111688261117b565b9050919050565b60008115159050919050565b600073ffffffffffffffffffffffffffffffffffffffff82169050919050565b6000819050919050565b82818337600083830152505050565b60005b838110156111d25780820151818401526020810190506111b7565b838111156111e1576000848401525b50505050565b600060028204905060018216806111ff57607f821691505b60208210811415611213576112126112f1565b5b50919050565b6112228261134f565b810181811067ffffffffffffffff8211171561124157611240611320565b5b80604052505050565b60006112558261119b565b91507fffffffffffffffffffffffffffffffffffffffffffffffffffffffffffffffff82141561128857611287611293565b5b600182019050919050565b7f4e487b7100000000000000000000000000000000000000000000000000000000600052601160045260246000fd5b7f4e487b7100000000000000000000000000000000000000000000000000000000600052601260045260246000fd5b7f4e487b7100000000000000000000000000000000000000000000000000000000600052602260045260246000fd5b7f4e487b7100000000000000000000000000000000000000000000000000000000600052604160045260246000fd5b6000601f19601f8301169050919050565b7f416d6f756e74206d7573742062652067726561746572207468616e207a65726f600082015250565b7f4f6e6c792072656e657761626c6520656e657267792075736572732063616e2060008201527f636c61696d20696e63656e746976657300000000000000000000000000000000602082015250565b7f496e73756666696369656e7420656e657267792062616c616e63650000000000600082015250565b7f496e76616c696420726563697069656e74206164647265737300000000000000600082015250565b7f596f752061726520616c7265616479206120726567697374657265642072656e60008201527f657761626c6520656e6572677920757365720000000000000000000000000000602082015250565b7f456e657267792074797065206d757374206e6f7420626520656d707479000000600082015250565b7f4e6f20696e63656e746976657320617661696c61626c6520746f20636c61696d600082015250565b6114d48161115d565b81146114df57600080fd5b50565b6114eb8161116f565b81146114f657600080fd5b50565b6115028161119b565b811461150d57600080fd5b5056fea2646970667358221220db0711accec3f6b8ab31db5087a7a3c2517faa273091c8a73f822f2cc01ecd8164736f6c63430008010033",
  "linkReferences": {},
  "deployedLinkReferences": {}
}