{
  "_format": "hh-sol-artifact-1",
  "contractName": "EnergyTrading",
  "sourceName": "contracts/EnergyTrading.sol",
  "abi": [
    {
      "inputs": [],
      "stateMutability": "nonpayable",
      "type": "constructor"
    },
    {
      "anonymous": false,
      "inputs": [
        {
          "indexed": true,
          "internalType": "address",
          "name": "provider",
          "type": "address"
        },
        {
          "indexed": false,
          "internalType": "uint256",
          "name": "amount",
          "type": "uint256"
        }
      ],
      "name": "EnergyAdded",
      "type": "event"
    },
    {
      "anonymous": false,
      "inputs": [
        {
          "indexed": true,
          "internalType": "address",
          "name": "from",
          "type": "address"
        },
        {
          "indexed": true,
          "internalType": "address",
          "name": "to",
          "type": "address"
        },
        {
          "indexed": false,
          "internalType": "uint256",
          "name": "amount",
          "type": "uint256"
        }
      ],
      "name": "EnergyTransferred",
      "type": "event"
    },
    {
      "anonymous": false,
      "inputs": [
        {
          "indexed": true,
          "internalType": "address",
          "name": "user",
          "type": "address"
        },
        {
          "indexed": false,
          "internalType": "uint256",
          "name": "incentiveAmount",
          "type": "uint256"
        }
      ],
      "name": "RenewableEnergyIncentiveClaimed",
      "type": "event"
    },
    {
      "anonymous": false,
      "inputs": [
        {
          "indexed": true,
          "internalType": "address",
          "name": "user",
          "type": "address"
        }
      ],
      "name": "RenewableEnergyRegistered",
      "type": "event"
    },
    {
      "inputs": [
        {
          "internalType": "string",
          "name": "energyType",
          "type": "string"
        },
        {
          "internalType": "uint256",
          "name": "amount",
          "type": "uint256"
        },
        {
          "internalType": "bool",
          "name": "isRenewable",
          "type": "bool"
        }
      ],
      "name": "addEnergy",
      "outputs": [],
      "stateMutability": "nonpayable",
      "type": "function"
    },
    {
      "inputs": [],
      "name": "claimRenewableEnergyIncentive",
      "outputs": [],
      "stateMutability": "nonpayable",
      "type": "function"
    },
    {
      "inputs": [
        {
          "internalType": "address",
          "name": "",
          "type": "address"
        }
      ],
      "name": "energyBalances",
      "outputs": [
        {
          "internalType": "uint256",
          "name": "",
          "type": "uint256"
        }
      ],
      "stateMutability": "view",
      "type": "function"
    },
    {
      "inputs": [
        {
          "internalType": "uint256",
          "name": "",
          "type": "uint256"
        }
      ],
      "name": "energyProviders",
      "outputs": [
        {
          "internalType": "address",
          "name": "providerAddress",
          "type": "address"
        },
        {
          "internalType": "string",
          "name": "energyType",
          "type": "string"
        },
        {
          "internalType": "uint256",
          "name": "energyBalance",
          "type": "uint256"
        },
        {
          "internalType": "bool",
          "name": "isRenewable",
          "type": "bool"
        }
      ],
      "stateMutability": "view",
      "type": "function"
    },
    {
      "inputs": [],
      "name": "owner",
      "outputs": [
        {
          "internalType": "address",
          "name": "",
          "type": "address"
        }
      ],
      "stateMutability": "view",
      "type": "function"
    },
    {
      "inputs": [],
      "name": "registerRenewableEnergyUser",
      "outputs": [],
      "stateMutability": "nonpayable",
      "type": "function"
    },
    {
      "inputs": [
        {
          "internalType": "address",
          "name": "",
          "type": "address"
        }
      ],
      "name": "renewableEnergyUsers",
      "outputs": [
        {
          "internalType": "bool",
          "name": "",
          "type": "bool"
        }
      ],
      "stateMutability": "view",
      "type": "function"
    },
    {
      "inputs": [
        {
          "internalType": "address",
          "name": "to",
          "type": "address"
        },
        {
          "internalType": "uint256",
          "name": "amount",
          "type": "uint256"
        }
      ],
      "name": "transferEnergy",
      "outputs": [],
      "stateMutability": "nonpayable",
      "type": "function"
    }
  ],
  "bytecode": "0x608060405234801561001057600080fd5b50336000806101000a81548173ffffffffffffffffffffffffffffffffffffffff021916908373ffffffffffffffffffffffffffffffffffffffff1602179055506114c2806100606000396000f3fe608060405234801561001057600080fd5b50600436106100885760003560e01c8063a249eb611161005b578063a249eb61146100f2578063a99059391461010e578063d77ab8ab1461012a578063ee3d63561461015a57610088565b80633eed545b1461008d578063415e7e6d146100c05780636d74ae6f146100ca5780638da5cb5b146100d4575b600080fd5b6100a760048036038101906100a29190610cab565b61018a565b6040516100b79493929190610e4a565b60405180910390f35b6100c861027f565b005b6100d2610401565b005b6100dc61052b565b6040516100e99190610e2f565b60405180910390f35b61010c60048036038101906101079190610c44565b61054f565b005b61012860048036038101906101239190610c08565b61071d565b005b610144600480360381019061013f9190610bdf565b610967565b6040516101519190610f91565b60405180910390f35b610174600480360381019061016f9190610bdf565b61097f565b6040516101819190610e96565b60405180910390f35b6001818154811061019a57600080fd5b90600052602060002090600402016000915090508060000160009054906101000a900473ffffffffffffffffffffffffffffffffffffffff16908060010180546101e390611163565b80601f016020809104026020016040519081016040528092919081815260200182805461020f90611163565b801561025c5780601f106102315761010080835404028352916020019161025c565b820191906000526020600020905b81548152906001019060200180831161023f57829003601f168201915b5050505050908060020154908060030160009054906101000a900460ff16905084565b600360003373ffffffffffffffffffffffffffffffffffffffff1673ffffffffffffffffffffffffffffffffffffffff16815260200190815260200160002060009054906101000a900460ff1661030b576040517f08c379a000000000000000000000000000000000000000000000000000000000815260040161030290610ed1565b60405180910390fd5b600061031561099f565b90506000811161035a576040517f08c379a000000000000000000000000000000000000000000000000000000000815260040161035190610f71565b60405180910390fd5b80600260003373ffffffffffffffffffffffffffffffffffffffff1673ffffffffffffffffffffffffffffffffffffffff16815260200190815260200160002060008282546103a9919061101e565b925050819055503373ffffffffffffffffffffffffffffffffffffffff167f6b9353878aec8d62e54b7228f22d3b548328c6e7a43b0783a2a5fe2440e34972826040516103f69190610f91565b60405180910390a250565b600360003373ffffffffffffffffffffffffffffffffffffffff1673ffffffffffffffffffffffffffffffffffffffff16815260200190815260200160002060009054906101000a900460ff161561048e576040517f08c379a000000000000000000000000000000000000000000000000000000000815260040161048590610f31565b60405180910390fd5b6001600360003373ffffffffffffffffffffffffffffffffffffffff1673ffffffffffffffffffffffffffffffffffffffff16815260200190815260200160002060006101000a81548160ff0219169083151502179055503373ffffffffffffffffffffffffffffffffffffffff167fc6fe93cfe1379b13171c0150b8aab9c0d32b01c367e5955984be0afc9d39efec60405160405180910390a2565b60008054906101000a900473ffffffffffffffffffffffffffffffffffffffff1681565b60008211610592576040517f08c379a000000000000000000000000000000000000000000000000000000000815260040161058990610eb1565b60405180910390fd5b60008351116105d6576040517f08c379a00000000000000000000000000000000000000000000000000000000081526004016105cd90610f51565b60405180910390fd5b600160405180608001604052803373ffffffffffffffffffffffffffffffffffffffff168152602001858152602001848152602001831515815250908060018154018082558091505060019003906000526020600020906004020160009091909190915060008201518160000160006101000a81548173ffffffffffffffffffffffffffffffffffffffff021916908373ffffffffffffffffffffffffffffffffffffffff160217905550602082015181600101908051906020019061069d929190610a95565b506040820151816002015560608201518160030160006101000a81548160ff02191690831515021790555050503373ffffffffffffffffffffffffffffffffffffffff167f62d45c5de4879714a792168f6d1f29510dda2bd60e80e980f320196e8fb20d86836040516107109190610f91565b60405180910390a2505050565b600073ffffffffffffffffffffffffffffffffffffffff168273ffffffffffffffffffffffffffffffffffffffff16141561078d576040517f08c379a000000000000000000000000000000000000000000000000000000000815260040161078490610f11565b60405180910390fd5b600081116107d0576040517f08c379a00000000000000000000000000000000000000000000000000000000081526004016107c790610eb1565b60405180910390fd5b80600260003373ffffffffffffffffffffffffffffffffffffffff1673ffffffffffffffffffffffffffffffffffffffff168152602001908152602001600020541015610852576040517f08c379a000000000000000000000000000000000000000000000000000000000815260040161084990610ef1565b60405180910390fd5b80600260003373ffffffffffffffffffffffffffffffffffffffff1673ffffffffffffffffffffffffffffffffffffffff16815260200190815260200160002060008282546108a191906110a5565b9250508190555080600260008473ffffffffffffffffffffffffffffffffffffffff1673ffffffffffffffffffffffffffffffffffffffff16815260200190815260200160002060008282546108f7919061101e565b925050819055508173ffffffffffffffffffffffffffffffffffffffff163373ffffffffffffffffffffffffffffffffffffffff167f314d9d54f4824ae491ddf2a96075427b4aa537d03004255d1ebaf12ffd29f3d88360405161095b9190610f91565b60405180910390a35050565b60026020528060005260406000206000915090505481565b60036020528060005260406000206000915054906101000a900460ff1681565b6000806000905060005b600180549050811015610a8d57600181815481106109f0577f4e487b7100000000000000000000000000000000000000000000000000000000600052603260045260246000fd5b906000526020600020906004020160030160009054906101000a900460ff1615610a7a57600a60018281548110610a50577f4e487b7100000000000000000000000000000000000000000000000000000000600052603260045260246000fd5b906000526020600020906004020160020154610a6c9190611074565b82610a77919061101e565b91505b8080610a85906111c6565b9150506109a9565b508091505090565b828054610aa190611163565b90600052602060002090601f016020900481019282610ac35760008555610b0a565b82601f10610adc57805160ff1916838001178555610b0a565b82800160010185558215610b0a579182015b82811115610b09578251825591602001919060010190610aee565b5b509050610b179190610b1b565b5090565b5b80821115610b34576000816000905550600101610b1c565b5090565b6000610b4b610b4684610fd1565b610fac565b905082815260208101848484011115610b6357600080fd5b610b6e848285611121565b509392505050565b600081359050610b8581611447565b92915050565b600081359050610b9a8161145e565b92915050565b600082601f830112610bb157600080fd5b8135610bc1848260208601610b38565b91505092915050565b600081359050610bd981611475565b92915050565b600060208284031215610bf157600080fd5b6000610bff84828501610b76565b91505092915050565b60008060408385031215610c1b57600080fd5b6000610c2985828601610b76565b9250506020610c3a85828601610bca565b9150509250929050565b600080600060608486031215610c5957600080fd5b600084013567ffffffffffffffff811115610c7357600080fd5b610c7f86828701610ba0565b9350506020610c9086828701610bca565b9250506040610ca186828701610b8b565b9150509250925092565b600060208284031215610cbd57600080fd5b6000610ccb84828501610bca565b91505092915050565b610cdd816110d9565b82525050565b610cec816110eb565b82525050565b6000610cfd82611002565b610d07818561100d565b9350610d17818560208601611130565b610d20816112cb565b840191505092915050565b6000610d3860208361100d565b9150610d43826112dc565b602082019050919050565b6000610d5b60308361100d565b9150610d6682611305565b604082019050919050565b6000610d7e601b8361100d565b9150610d8982611354565b602082019050919050565b6000610da160198361100d565b9150610dac8261137d565b602082019050919050565b6000610dc460328361100d565b9150610dcf826113a6565b604082019050919050565b6000610de7601d8361100d565b9150610df2826113f5565b602082019050919050565b6000610e0a60208361100d565b9150610e158261141e565b602082019050919050565b610e2981611117565b82525050565b6000602082019050610e446000830184610cd4565b92915050565b6000608082019050610e5f6000830187610cd4565b8181036020830152610e718186610cf2565b9050610e806040830185610e20565b610e8d6060830184610ce3565b95945050505050565b6000602082019050610eab6000830184610ce3565b92915050565b60006020820190508181036000830152610eca81610d2b565b9050919050565b60006020820190508181036000830152610eea81610d4e565b9050919050565b60006020820190508181036000830152610f0a81610d71565b9050919050565b60006020820190508181036000830152610f2a81610d94565b9050919050565b60006020820190508181036000830152610f4a81610db7565b9050919050565b60006020820190508181036000830152610f6a81610dda565b9050919050565b60006020820190508181036000830152610f8a81610dfd565b9050919050565b6000602082019050610fa66000830184610e20565b92915050565b6000610fb6610fc7565b9050610fc28282611195565b919050565b6000604051905090565b600067ffffffffffffffff821115610fec57610feb61129c565b5b610ff5826112cb565b9050602081019050919050565b600081519050919050565b600082825260208201905092915050565b600061102982611117565b915061103483611117565b9250827fffffffffffffffffffffffffffffffffffffffffffffffffffffffffffffffff038211156110695761106861120f565b5b828201905092915050565b600061107f82611117565b915061108a83611117565b92508261109a5761109961123e565b5b828204905092915050565b60006110b082611117565b91506110bb83611117565b9250828210156110ce576110cd61120f565b5b828203905092915050565b60006110e4826110f7565b9050919050565b60008115159050919050565b600073ffffffffffffffffffffffffffffffffffffffff82169050919050565b6000819050919050565b82818337600083830152505050565b60005b8381101561114e578082015181840152602081019050611133565b8381111561115d576000848401525b50505050565b6000600282049050600182168061117b57607f821691505b6020821081141561118f5761118e61126d565b5b50919050565b61119e826112cb565b810181811067ffffffffffffffff821117156111bd576111bc61129c565b5b80604052505050565b60006111d182611117565b91507fffffffffffffffffffffffffffffffffffffffffffffffffffffffffffffffff8214156112045761120361120f565b5b600182019050919050565b7f4e487b7100000000000000000000000000000000000000000000000000000000600052601160045260246000fd5b7f4e487b7100000000000000000000000000000000000000000000000000000000600052601260045260246000fd5b7f4e487b7100000000000000000000000000000000000000000000000000000000600052602260045260246000fd5b7f4e487b7100000000000000000000000000000000000000000000000000000000600052604160045260246000fd5b6000601f19601f8301169050919050565b7f416d6f756e74206d7573742062652067726561746572207468616e207a65726f600082015250565b7f4f6e6c792072656e657761626c6520656e657267792075736572732063616e2060008201527f636c61696d20696e63656e746976657300000000000000000000000000000000602082015250565b7f496e73756666696369656e7420656e657267792062616c616e63650000000000600082015250565b7f496e76616c696420726563697069656e74206164647265737300000000000000600082015250565b7f596f752061726520616c7265616479206120726567697374657265642072656e60008201527f657761626c6520656e6572677920757365720000000000000000000000000000602082015250565b7f456e657267792074797065206d757374206e6f7420626520656d707479000000600082015250565b7f4e6f20696e63656e746976657320617661696c61626c6520746f20636c61696d600082015250565b611450816110d9565b811461145b57600080fd5b50565b611467816110eb565b811461147257600080fd5b50565b61147e81611117565b811461148957600080fd5b5056fea264697066735822122032054ccc7d8672013257c367930905ae3dedf77ea4521d680e6435f4f60513fe64736f6c63430008010033",
  "linkReferences": {},
  "deployedLinkReferences": {}
}